:020000040800F2
:10000000580A00200D2600081526000817260008AB
:10001000192600081B2600081D2600080000000005
:100020000000000000000000000000001F26000883
:100030002126000800000000232600082D170008D4
:10004000272600082726000827260008272600085C
:10005000272600082726000827260008272600084C
:10006000272600082726000827260008272600083C
:10007000272600082726000827260008272600082C
:100080002726000827260008272600080000000071
:10009000000000000000000000000000272600080B
:1000A00027260008272600082726000827260008FC
:1000B00027260008B11800086F0500082726000849
:1000C00027260008272600082726000827260008DC
:1000D00027260008DD1D000827260008E11E00086D
:1000E00027260008272600082726000827260008BC
:1000F0002726000827260008000000000000000056
:100100000000000000000000272600082726000845
:10011000272600082726000827260008272600088B
:10012000272600082726000827260008272600087B
:100130002726000800F002F800F063F80AA090E813
:10014000000C82448344AAF10107DA4501D100F092
:1001500058F8AFF2090EBAE80F0013F0010F18BFFC
:10016000FB1A43F001031847A0450000C0450000FA
:100170000A444FF0000C10F8013B13F0070408BFCD
:1001800010F8014B1D1108BF10F8015B641E05D06B
:1001900010F8016B641E01F8016BF9D113F0080F20
:1001A0001EBF10F8014BAD1C0C1B09D16D1E58BFB2
:1001B00001F801CBFAD505E014F8016B01F8016BE9
:1001C0006D1EF9D59142D6D370470000002300245C
:1001D00000250026103A28BF78C1FBD8520728BF57
:1001E00030C148BF0B6070471FB502F0CFFA040062
:1001F0000020002103F0D0F8401C60601FBD10B546
:1002000010BD02F0CFFA1146FFF7EEFF00F058FBE9
:1002100002F0EDFA03B4FFF7F2FF03BC02F02EFB8D
:10022000002059490860091D086057490C310860D1
:10023000554928310860091D0860091D08605248A9
:10024000001D006840F001004F49091D0860084684
:10025000006840F00800086000BF4B48001D0068BF
:1002600000F008000828F8D04748001D006840F05A
:1002700004004549091D086000BF4348001D00688F
:1002800000F008000428F8D03F480C30006840F027
:1002900005003D490C3108600846006820F0020066
:1002A00008600846006840F02800086008460068BA
:1002B00020F0100008603448006840F400503249D3
:1002C00008600846006840F480700860081D0068F7
:1002D00040F46020091D08600846006840F4801062
:1002E00008600846006840F481700860264828309D
:1002F000006840F4801024492831086022483030DA
:10030000006840F020002049303108601E48001D80
:10031000006840F480001C49091D086070472DE901
:10032000F84F82468B4600200090584603F0A7FA0B
:1003300006464FF06632154B03F0F0FA04460022F1
:10034000134B03F02DF9804603F03CF80090009821
:10035000CAF80000BDE8F88F2DE9F04104460D46CB
:10036000002629460B4803F083FE80464FF081416A
:1003700004F086F807463946074803F079FE06463A
:100380002660BDE8F08100000424014066660A4052
:1003900000FEAF400000A0400000964307484068C0
:1003A000064948600846406840F400304860084606
:1003B000406840F0806048607047000000000140E5
:1003C00070B502460C46FF25FF2309E012F8010B29
:1003D00080EA05010648405C80EA03050548435C65
:1003E0002000A4F10106F4B2F0D143EA052070BD6B
:1003F000000100200000002000221A4B9A601A46DB
:10040000926842F480629A601A46926842F480725E
:100410009A601A465061D160134A1A611A4692686E
:1004200022F010029A601A46926842F0A0029A6086
:100430001A46926822F040029A601A46926842F484
:1004400080629A601A46926842F480729A601A46F4
:10045000926842F440529A601A46926842F0010251
:100460009A607047000002404C240140002065491A
:100470000860091F08604EF65F206249091D086088
:1004800060482838006820F010005E49283908606C
:100490005C482038006820F470605A4920390860B0
:1004A0000846006820F4405008600846006820F4C0
:1004B000004008600846006840F480400860002062
:1004C000C906886248624EF65F20C8620846006826
:1004D00020F0100008600846806820F47060886092
:1004E0000846806820F4405088600846806820F400
:1004F000004088600846806840F48040886047F685
:10050000FF40414908600020091F08604FF47A70DD
:100510003D49091D08603C481C38006840F0010056
:1005200039491C3908601E200121814042094FF0E1
:10053000E02303EB8202C2F8001100BF31482838E3
:10054000006840F001002F49283908604FF08040D2
:10055000006840F001004FF0804108602A482838C8
:10056000006840F001002849283908607047254894
:100570002838006820F001002249283908604FF02F
:100580008040006820F001004FF0804108601D4865
:10059000001F00681D4908804FF08040406A1C49D8
:1005A000088000201749091F08600907486216499A
:1005B000091F086014481838006820F0010012492B
:1005C000183908600F482838006840F001000D49CC
:1005D000283908604FF08040006840F001004FF07B
:1005E0008041086008482838006840F0010006494A
:1005F000283908607047054800887047044800881B
:1006000070470000282C014028080040000200200C
:100610000202002025482649486026484860704765
:100620002348006940F08000214908617047014675
:10063000086870471E4A126942F001021C4B1A6199
:1006400000BF1B4AD26812F0010FFAD1018000BF2F
:10065000174AD26812F0010FFAD1801C090C0180F0
:1006600000BF134AD26812F0010FFAD1104A126982
:1006700022F001020E4B1A6170470D49096941F0E1
:1006800002010B4A116111464861096941F04001BC
:10069000116100BF0649C96811F0010FFAD1044980
:1006A000096921F00201024A11617047230167457F
:1006B00000200240AB89EFCD002073490860091D7E
:1006C000086072490860091D086071490860486047
:1006D00070490860091D08606B48001D006820F023
:1006E000C0006949091D08600846006840F08000A4
:1006F00008600846006840F010000860084600687E
:1007000040F4806008600846006820F400600860DB
:100710000846006820F4407008605C48006840F4B7
:1007200040105A490860081D006820F44060091D07
:1007300008600846006840F40060086008460068E9
:1007400040F4807008600846006840F4804008600B
:100750000846006820F4004008600846006820F45D
:1007600040500860081F006840F44030091F0860CE
:100770004848006840F40060464908604548143025
:10078000006840F004004349143108603E480068A6
:1007900040F400203C4908603B481430006840F0B9
:1007A00010003949143108603948006840F0006091
:1007B000374908600846406940F0400048610846F3
:1007C000406840F0080048600846406940F4807086
:1007D00048612E48001D006840F003002B49091DA8
:1007E00008600846006840F030000860284840680B
:1007F00040F44070264948600846406840F4403064
:1008000048602148001D006840F040701E49091DE5
:1008100008601F48406840F440501D4948601A482D
:10082000001D006840F440101749091D0860174872
:10083000006840F04050154908600846006840F0E4
:10084000030008601248006840F4405010490860F6
:100850000846406840F4401048600846006840F48C
:10086000407008600848006840F44010064908607D
:100870000846006840F0080008600846006840F03C
:10088000800008607047000000080140000C014033
:10089000001001400014014045F25550074908601E
:1008A0000020486040F6FF7088604CF6CC4008603D
:1008B00070474AF6AA20014908607047003000409E
:1008C00008B501F0C1F9FFF769FDFFF7F5FE01F08A
:1008D00047FA01F064FA01F021FA0421FE48FFF71B
:1008E0008BFDFFF79DFCFFF7D7FFFC49FC4801F0AB
:1008F0003DF801F00BFCFB49481EB0F1807F00D3AE
:100900001BE0481E4FF0E022506150170F220028D4
:1009100007DA13071D0EF44B00F00F04241F1D55BA
:1009200003E013071C0EF14B1C5400BF00204FF0D6
:10093000E02290610720106100BFFFF76BFEEC48DA
:10094000FFF775FE401C03D1EA48E549486004E022
:10095000E748FFF76CFEE2494860E548001DFFF7F5
:1009600066FE401C03D1E448DD49886005E0E048AC
:10097000001DFFF75CFEDA498860DD480830FFF7AC
:1009800056FE401C04D14FF08040D549C86005E0B8
:10099000D7480830FFF74BFED149C860D4480C3027
:1009A000FFF745FE401C03D1D448CD49086105E05E
:1009B000CF480C30FFF73BFEC9490861CC481030E6
:1009C000FFF735FE401C03D1CC48C549486105E01E
:1009D000C7481030FFF72BFEC1494861C848FFF7F0
:1009E00026FE401C03D1C349BD48C16104E0C44890
:1009F000FFF71DFEBA49C861C148001DFFF717FE89
:100A0000401C03D1BC49B648016205E0BC48001D4A
:100A1000FFF70DFEB2490862B9480830FFF707FE3C
:100A2000401C04D14FF08041AD48416205E0B4481C
:100A30000830FFF7FCFDAA494862B1480C30FFF7C7
:100A4000F6FD401C03D1AD49A548816205E0AC48E4
:100A50000C30FFF7ECFDA2498862A9481030FFF77F
:100A6000E6FD401C03D1A5499D48C16205E0A448AC
:100A70001030FFF7DCFD9A49C862FFF7D1FDA148AD
:100A8000006840F480709F4908600846006840F4A0
:100A9000007008609C48006940F480609A490861D1
:100AA0000846006940F4805008619848006840F4A6
:100AB0008040964908609448006940F4006092497B
:100AC00008619248006840F40050904908608D48E1
:100AD000001F006840F080008A49091F086008462E
:100AE000006840F0010008608748006940F0080095
:100AF000854908610846006940F4005008610846CD
:100B0000006940F004000861142081490870012048
:100B10008049087001E0FFF7CCFE7D48007800288E
:100B2000F9D17948406940F48060774948610846C6
:100B3000406940F4805048617448001D006840F4EA
:100B400080407249091D08606F48406940F40060A8
:100B50006D4948616D48001D006840F400506B49C4
:100B6000091D08606748006840F08000654908601A
:100B70000846006840F0010008606348406940F0A2
:100B80000800614948610846406940F400504861E6
:100B90000846406940F00400486114205C49087030
:100BA00001205C49087001E0FFF783FE5848007897
:100BB0000028F9D15448006940F480605249086126
:100BC0005048001F006840F080004E49091F08602F
:100BD0004D48006940F480604B490861084640690F
:100BE00040F4805048614948001D006840F480404E
:100BF0004649091D08604448406940F40060424984
:100C000048614248001D006840F400503F49091DFA
:100C100008603C48001F006840F080003949091F07
:100C20000860081D006840F00100091D0860364892
:100C3000406940F00800344948610846406940F482
:100C4000005048610846406940F0040048612F4860
:100C5000001D006840F020002C49091D086001209B
:100C60002D4908702D4908701D4AD168906803F01D
:100C7000FFF9804603F062F906460022284B02F095
:100C80004DFE044602F09EFB26490860144AD168D6
:100C9000906803F0EDF9804603F050F90646002213
:100CA000214B02F03BFE044602F08CFB1F4908601A
:100CB0000B4A516A106A03F0DBF9804603F03EF9F3
:100CC00006460022164B02F029FE044602F07AFB8B
:100CD00017490860024A2DE062020020100300203C
:100CE00058030020006A180018ED00E000E400E05E
:100CF00000A000080000FA4352B86E400000F04126
:100D000000A40008140C014000100140100801402C
:100D1000260200202502002061020020600200203F
:100D20000000E03F3C0200200000F83F38020020B5
:100D30004C020020516A106A03F09AF9804603F0D1
:100D4000FDF806460022FE4B02F0E8FD044602F0E4
:100D500039FBFC490860E7E3FB480188FB48FFF7E3
:100D6000DEFAF9484188FA48FFF7D9FAF7480168EE
:100D7000F848FFF7F1FAF6480168F748FFF7ECFA90
:100D80000021F448006803F049FA03D20020F34937
:100D9000486003E0EF480068F04948600021EE48F1
:100DA000006803F03BFA03D20021EC48816203E0C3
:100DB000E9480168E9488162E94A5168E74A5068B0
:100DC00003F02CFB0CD2E748006840F48040E54972
:100DD0000860E248408840F00200E04948800DE0A9
:100DE000E048001D006840F48040DE49091D0860AD
:100DF000DA48408820F00200D8494880D84AD169B2
:100E0000D64A906A03F00AFB0CD2D748006940F03A
:100E10000800D5490861D148C08C40F00201CF4894
:100E2000C1840BE0D048406940F00800CE494861D9
:100E3000CA48C08C20F00201C848C184C749C868AC
:100E4000CA4903F0EBFA05D9C4490869C74903F058
:100E5000E5FA4ED8C149C868C44903F0DFFA0CD29C
:100E6000BE490869C14903F0D9FA06D2BB4A1169E3
:100E7000D06803F0FDF8B9494861B849C868BB4972
:100E800003F0CCF907D2B54801694FF07E5003F06A
:100E9000EFF8B2494861B1490869B44903F0BEF9B5
:100EA00007D2AE49C8684FF07E5103F0E1F8AB4974
:100EB0004861AA494869AE49096803F0AFF906D309
:100EC000A6494869AB49096803F0A8FA05D2012090
:100ED000A9490870A949087016E00020A6490870C1
:100EE000A6490870A048406940F400609E494861E6
:100EF0000AE00020A0490870A04908709A4840699B
:100F000040F40060984948619449086B974903F0A0
:100F100085FA05D99149486B944903F07FFA4ED878
:100F20008E49086B914903F079FA0CD28B49486BD2
:100F30008E4903F073FA06D2884A516B106B03F0A6
:100F400097F8864988638549086B884903F066F9F4
:100F500007D28248416B4FF07E5003F089F87F49F9
:100F600088637E49486B814903F058F907D27B4971
:100F7000086B4FF07E5103F07BF87849886377491E
:100F8000886B7F49096803F049F906D37349886B78
:100F90006C49096803F042FA05D2012079490870CA
:100FA0007949087016E00020764908707649087083
:100FB0006D48406940F400506B4948610AE00020E8
:100FC00070490870704908706748406940F40050E3
:100FD00065494861624A1169604AD06903F01EFAA6
:100FE00006D35F4A51695D4A106A03F017FA06D2C8
:100FF0005C48006840F400505A49086007E05948CE
:10100000001D006840F400505649091D0860544A0C
:101010001169524AD06903F001FA06D24F4840885C
:1010200040F008004D49488005E04C48408820F0D9
:1010300008004A4948804A4A5169484A106A03F000
:10104000EDF906D24548408840F0100043494880F9
:1010500005E04248408820F0100040494880404A5E
:10106000916A3E4A106C03F0D9F906D33C4AD16A22
:101070003A4A506C03F0D2F906D23B48006940F07E
:1010800004003949086105E03748406940F0040030
:1010900035494861324A916A304A106C03F0BEF912
:1010A00006D22E48C08C40F008012C48C18405E0CF
:1010B0002A48C08C20F008012848C184284AD16AF7
:1010C000264A506C03F0AAF906D22448C08C40F09E
:1010D00010012248C18405E02048C08C20F0100196
:1010E0001E48C1842048806810F0400F0BD01E4875
:1010F000006940F480501C4908611848408840F05D
:101100000100164948801848806810F4807F0BD091
:101110001E48006840F001001C4908600F48C08C60
:1011200040F001010D48C1841948006810F0040F17
:1011300046D01848007878B30020164908702CE093
:101140000000F83F48020020620200202802002030
:101150002C02002030020020340200201003002066
:1011600058030020100801400010014000002041F9
:101170003C0200203802002012020020140200204D
:101180004C0200201302002015020020100C014028
:10119000081401400A0200201BE0FA48006840F0F1
:1011A0000100F8490860F848006840F48070F6498A
:1011B00008600020F54908700120F549087008E032
:1011C000F448007828B90120F24908700020F0495D
:1011D0000870F148006810F0100F18D0EF48007840
:1011E000F0B10020ED490870E648006840F00100C9
:1011F000E4490860E448006840F40070E24908608F
:101200000020E74908700120E649087008E0E3483B
:10121000007828B90120E14908700020E1490870F0
:10122000E148007801287CD10020DF490870DA48C5
:101230000830006840F02000D74908310860DB48DA
:101240000078142836D008DC01280DD002281ED0E2
:10125000032870D0042819D181E0152849D0162818
:101260007CD01728F7D1ACE00121D14801F01AF960
:101270000E220021CE4800F0C9FECE48007840F092
:101280000100CC4908700220C8490870B8E002216A
:10129000C74801F007F90E220021C54800F0B6FE4C
:1012A000C448007840F00200C24908701420BF49C9
:1012B0000870A5E002204FF47C731422BE49009010
:1012C000BB4800F095FB0E20BC4908700220BC49C9
:1012D0000870B94802780021B54800F097FEB5487B
:1012E000007840F00400B34908701520AF49087039
:1012F00086E002204FF47C731522AF490090AC4881
:1013000000F076FB1020AD4908700220AC4908704F
:10131000A94802780021A64800F078FEA548007888
:1013200001E06EE007E040F00800A24908700320E9
:101330009E49087064E003219D4801F0B3F80E2235
:1013400000219B4800F062FE9E48007840F00100BA
:101350009C49087004209549087051E012E004216E
:10136000934801F09FF80E220021914800F04EFEB4
:101370009448007840F002009249087016208B498A
:1013800008703DE002204FF47C7316228A490090D9
:10139000874800F02DFB20208849087002208849EA
:1013A0000870854802780021814800F02FFE8548AA
:1013B000007840F004008349087017207B490870CA
:1013C0001EE002204FF47C7317227B49009078487E
:1013D00000F00EFB2220794908700220784908703D
:1013E000754802780021724800F010FE75480078B8
:1013F00040F008007349087001206C49087000BF74
:1014000000BF00F04AFE022814D100F04DFE6E48E5
:1014100000F0F2FD6D4908606D4B6E4A6A48017834
:101420006A48006800F034FB694802780021694886
:1014300000F00EFE00F02EFE022874D100F030FE07
:10144000654800F0CFFD65490860084600680078EF
:1014500023282BD1604801786048006800F0C3FF62
:1014600001F0B4F802282BD101F0B3F801F0B5F87F
:10147000012806D0022809D003280CD0042814D152
:101480000EE001F0ADF85649C8600EE001F0A8F892
:101490005349086109E001F0A3F85149086304E0E9
:1014A00001F09EF84E49486300BF09E044480378C4
:1014B00042480278484801784848006800F07EFBBE
:1014C00000F0AEFB142806D015280BD0162810D03B
:1014D00017281CD114E03748007820F00400354963
:1014E000087014E03348007820F008003149087093
:1014F0000DE03448007820F004003249087006E01E
:101500003048007820F008002E49087000BF00BF66
:1015100001F069F8012808D002280DD0032812D064
:1015200004281ED116E023E0FEE02248007820F0D7
:1015300001002049087014E01E48007820F00200E5
:101540001C4908700DE01F48007820F001001D497B
:10155000087006E01B48007820F002001949087066
:1015600000BF00BF03201F49087001201E490870FA
:1015700010480078E0BB13480078C8BB00201B4926
:10158000087039E000040040100C01400E020020F9
:101590000C0200200A020020080801400B02002073
:1015A0000F0200200D0200206102002060020020D6
:1015B000AC0200201A0200200702002004020020D2
:1015C000050200201B020020080200205C0200200F
:1015D00009020020DE02002006020020580200203E
:1015E0001003002011020020100200201F02002022
:1015F000FFE70120BE490870BE48007870B900209E
:10160000BD490870BD48006940F48060BB4908616D
:10161000BB48008840F00B00B9490880B948007801
:1016200070B90020B8490870B848006840F08000E0
:10163000B6490860B248808C40F00B00B0498884FD
:1016400000F028FD01280DD100F02AFD1420B0493A
:1016500008700120AF490870AF48006840F02000D2
:10166000AD490860AD48006801282AD1FEF7D2FFD5
:10167000AB48FFF702F8A9484168A948FEF7DAFF2E
:10168000A6488168A648001DFEF7D4FFA348C1689C
:10169000A3480830FEF7CEFFA0480169A0480C30EF
:1016A000FEF7C8FF9D4841699D481030FEF7C2FF14
:1016B000FEF7B6FF9948006820F0010097490860DE
:1016C00000BF00BF9548806901282AD1FEF7A2FF1C
:1016D0009448FEF7D2FF9148C1699248FEF7AAFFED
:1016E0008E48016A8F48001DFEF7A4FF8B48416AAF
:1016F0008C480830FEF79EFF8848816A89480C3084
:10170000FEF798FF8548C16A86481030FEF792FFC1
:10171000FEF786FF8148806920F001007F498861DB
:1017200000BF00BFFFF7C5F8FFF716BB7E48007883
:1017300050B17E480078401E7C4908700846007809
:1017400010B90020784908707248007868B1704874
:101750000078401E6E4908700846007828B90020BD
:101760006C49087001207249087061480078D0B156
:1017700070480068401C6F49086008460068A0F582
:101780000071EE3912D100206A490860594800788A
:1017900010B10120584908705A48007830B1012032
:1017A0005949087002E000206249086062480078E8
:1017B000A8B162480088401C60490880084600883B
:1017C000B0F5FA7F0ED1002008805D48007848B15E
:1017D0004A48006940F400604849086102E000207E
:1017E0005649088057480078A8B157480088401CDF
:1017F0005549088008460088B0F5FA7F0ED10020D0
:1018000008805248007848B13C48006940F40050D4
:101810003A49086102E000204B4908804C480078B2
:10182000401C4B490870084600780A280BD100205C
:1018300008704848007818B100204649087002E056
:1018400001204449087044480078B0B1434800780A
:10185000401C424908700846007814280DD1002029
:1018600008703F48006840F001003D490860274883
:10187000006840F48070254908603A480078B0B1AB
:1018800039480078401C3849087008460078142808
:101890000DD1002008703248006840F00100304946
:1018A00008601A48006840F40070184908607047E2
:1018B0002B481030006820F00100294910310860E1
:1018C0002748006820F001002549086000202449CD
:1018D000243108600D48001D006840F480700B49F9
:1018E000091D08600846006840F4007008607047F1
:1018F0001F0200201A0200201C02002000100140DC
:10190000100300201B0200201D020020100C0140CB
:10191000110200201002002014080140580300208A
:1019200000A0000800A400082502002026020020D4
:101930006102002020020020120200201602002076
:1019400014020020130200201802002015020020BB
:10195000240200201E0200200C0200200E020020A3
:10196000000400400D0200200F020020B24A106067
:10197000B24A11607047F0B505461C4600200023AE
:101980004E78032E04D0042E04D0102E06D103E08E
:10199000032303E0032301E0072300BF00BF104639
:1019A0000AE0CE187678CF5C46EA072625F8106064
:1019B0009E1CB3B2461CB0B216198642F1DCF0BDD3
:1019C00070B504460D4600200321D0B20CE034F877
:1019D000106036126E544E1CF1B214F810606E5442
:1019E0004E1CF1B2461CF0B2D6188642EFDC70BD38
:1019F0002DE9F04104460E4690461D46069F84F8A8
:101A00000080042060702812A070E57038122071E8
:101A1000677106212046FEF7D3FC0012A071062153
:101A20002046FEF7CDFCE07108203070BDE8F08163
:101A30002DE9F0470446884691461E46089F7806E1
:101A4000050E84F80090102060703012A070E670CF
:101A5000381220716771A5713B463246214676489F
:101A60000068FFF7ADFFE81DC1B22046FEF7A8FCF5
:101A700000126119C871E81DC1B22046FEF7A0FC32
:101A80006119087205F1090088F80000BDE8F087C7
:101A90002DE9F84F04468846154699464FF0000A4E
:101AA00000270026B34600200090A8F10100C1B233
:101AB0002046FEF785FC834614F8080004EB080175
:101AC00011F8011C40EA012000900098834573D171
:101AD00020784D2870D16078032804D004282DD0B8
:101AE000102868D155E0E078A17840EA012A6079B1
:101AF000217940EA01274FF6FF7000EA47064D20A2
:101B0000287003206870AE703B46524629464A480A
:101B10000068FFF755FFF01CC1B22846FEF750FCE5
:101B20000012A919C870F01CC1B22846FEF748FC83
:101B3000A9190871701D89F800003CE0E078A178CF
:101B400040EA012A6079217940EA01274FF6FF70C7
:101B500000EA47064D20287004206870AE703B46AE
:101B60005246294635480068FFF72AFFF01CC1B2EB
:101B70002846FEF725FC0012A919C870F01CC1B256
:101B80002846FEF71DFCA9190871701D89F8000090
:101B900011E0E078A17840EA012A6079217940EAF1
:101BA0000127A679FBB20AF0FF022146224800680D
:101BB000FFF7E1FE00BF00BFBDE8F88F2DE9F04759
:101BC00004460D4616461F464FF00008C1462078D1
:101BD0001B490870681EC1B22046FEF7F1FB804623
:101BE000605D611911F8011C40EA0129C84512D154
:101BF0000120144908706078042802D0102809D107
:101C000007E03B46324621460C480068FFF7B3FE2A
:101C100000E000BF02E000200A490870BDE8F0873C
:101C20000848007828B10020064908700448007868
:101C300070470020FCE700006C02002070020020CA
:101C400068020020690200203248006840F48030B9
:101C50003049086000BF2F48006810F4003FFAD0F8
:101C60002C48406840F410202A4948602A480068FF
:101C700040F00100284908602648006840F0807064
:101C80002449086000BF2348006810F0007FFAD0A4
:101C90002048406820F003001E494860084640681C
:101CA00040F00200486000BF1A48406800F0080099
:101CB0000828F9D11748406820F480401549486049
:101CC0000846406840F4004048600846806940F09B
:101CD0003C0088610846806940F001008861084640
:101CE000806940F4804088610846C06940F48020E3
:101CF000C8610846806940F4007088610846406900
:101D000040F0010048610846C06940F00200C86127
:101D100070470000001002400020024047F6FF40DC
:101D20000E4908600020091F086064200B49091D46
:101D300008600A481C38006840F0010007491C3957
:101D400008601D200121814042094FF0E02303EB90
:101D50008202C2F8001100BF704700002804004052
:101D600010B50020D849087040F60550D7490860E2
:101D7000081D006842F23C010843D449091D08606F
:101D80000020091D0860091D0860252000F090F959
:101D9000CF48006840F02000CD49086010BD10B564
:101DA0000020CC49087040F60550CB490860081D5A
:101DB000006842F23C010843C749091D0860002041
:101DC000091D0860091D0860272000F071F9C0484E
:101DD000006840F01000BE49086010BDBB480838DC
:101DE000006810F0200F0BD0B848001F0068BB49F6
:101DF000B54A12788854B4480078401CB24908703B
:101E0000B2480838006810F0100F14D0AF480838F6
:101E10000068B3490860AD48001F0068B149086018
:101E2000AA48001D006820F02000A849091D08608C
:101E30000220AD490870A5480838006810F0800FEE
:101E400023D0A248001D006810F0800F1DD0A748C5
:101E50000068A7490978405C9C49091F0860A448AC
:101E60000078401CA249087008460078A14909780A
:101E700088420AD100209E4908709448001D0068DD
:101E800020F080009149091D0860904808380068DA
:101E900010F0400F23D08D48001D006810F0400F57
:101EA0001DD08A480838006820F04000874908396A
:101EB00008608648001D006820F040008349091D25
:101EC00008600846006840F020000860804800680C
:101ED00040F020007E490860012083490870704767
:101EE0007D480838006810F0200F0BD07A48001F9A
:101EF00000688149774A1278885476480078401CF7
:101F00007449087074480838006810F0100F14D035
:101F1000714808380068724908606F48001F0068FF
:101F2000704908606C48001D006820F020006A4974
:101F3000091D086002207149087067480838006868
:101F400010F0800F23D06448001D006810F0800F4F
:101F50001DD06B4800686B490978405C5E49091FD9
:101F6000086068480078401C664908700846007898
:101F70006549097888420AD10020624908705648AC
:101F8000001D006820F080005349091D0860524878
:101F90000838006810F0400F23D04F48001D00683B
:101FA00010F0400F1DD04C480838006820F0400069
:101FB0004949083908604848001D006820F0400081
:101FC0004549091D08600846006840F02000086087
:101FD0003F48006840F010003D4908600120474933
:101FE00008707047014638480078401E087000208D
:101FF000354A107039487047014636480078401E0F
:1020000008700020334A10703B48704710B5374BBA
:102010001860374B1970374B1A702D4B1B1F1B68FC
:1020200043F020032A4C241F2360284B1B1D1B68F0
:1020300043F08003254C241D236023461B6823F0B6
:102040002003236023461B6843F04003236010BD38
:1020500010B52B4B18602B4B19702B4B1A701C4B67
:102060001B1F1B6843F01003194C241F23601A4BDD
:102070001B1D1B6843F08003174C241D236023465F
:102080001B6823F02003236023461B6843F04003B2
:10209000236010BD144800787047184800787047D6
:1020A00000201149087070470020144908707047DB
:1020B00000F01F020121914042094FF0E02303EBA1
:1020C0008202C2F8001170477502002008380140F2
:1020D000140C0140770200200848004088030020CB
:1020E000900200208C020020780200207C02002058
:1020F0008002002074020020BA0300208102002028
:1021000084020020880200207602002070472DE91A
:10211000F04F87B0044600BF00BF00BF4FF000097A
:1021200000BF00BF00BFE00F01F0A9FB82468B4655
:10213000C4F3027001F0A3FBCDE9040104F00F0029
:1021400002F058F88146C4F3031101EB8101480005
:1021500002F050F80546494601F01CFF8146C4F3E1
:102160000321642201FB02F002F044F805464946CF
:1021700001F010FF8146C4F303314FF47A7201FB82
:1021800002F002F037F80546494601F003FF8146A8
:10219000C4F3034142F2107201FB02F002F02AF88C
:1021A0000546494601F0F6FE8146C4F30351FC4A58
:1021B00001FB02F002F01EF80546494601F0EAFE76
:1021C000814652465B460020F64900F0CFFB0546AB
:1021D00001F0F8F80390DDE9047181F000433A461C
:1021E0000020F14900F0C2FB054601F0EBF8029037
:1021F000CDF80490DDE9021002F044F8054601999B
:1022000002F040F80690069807B0BDE8F08F70B570
:1022100002460B46002000211BE0545C002514E020
:1022200084EA202616F0800F07D04FF6FF7606EAE4
:10223000400048F65776704003E04FF6FF7606EA16
:1022400040006E1CF5B26606340E082DE8DB4E1C0D
:10225000F1B29942E1DB70BD70B50546284600F049
:102260006FFAC5B2A5F12000402824D2DFE800F0C3
:10227000B6B8B8B8B8B8B8B8B8B8B8B8B8B0B8B4EC
:102280002024282C3034383C4044B8B8B8B8B8B80A
:10229000B8484C5054585C6064686C7074787C80AA
:1022A00084888C9094989CA0A4A8ACB8B8B8B8B214
:1022B000A5F13000C4B293E0A5F13000C4B28FE0C4
:1022C000A5F13000C4B28BE0A5F13000C4B287E0C4
:1022D000A5F13000C4B283E0A5F13000C4B27FE0C4
:1022E000A5F13000C4B27BE0A5F13000C4B277E0C4
:1022F000A5F13000C4B273E0A5F13000C4B26FE0C4
:10230000A5F13700C4B26BE0A5F13700C4B267E0B5
:10231000A5F13700C4B263E0A5F13700C4B25FE0B5
:10232000A5F13700C4B25BE0A5F13700C4B257E0B5
:10233000A5F13700C4B253E0A5F13700C4B24FE0B5
:10234000A5F13700C4B24BE0A5F13700C4B247E0B5
:10235000A5F13700C4B243E0A5F13700C4B23FE0B5
:10236000A5F13700C4B23BE0A5F13700C4B237E0B5
:10237000A5F13700C4B233E0A5F13700C4B22FE0B5
:10238000A5F13700C4B22BE0A5F13700C4B227E0B5
:10239000A5F13700C4B223E0A5F13700C4B21FE0B5
:1023A000A5F13700C4B21BE0A5F13700C4B217E0B5
:1023B000A5F13700C4B213E0A5F13700C4B20FE0B5
:1023C000A5F13700C4B20BE0A5F13700C4B207E0B5
:1023D000242405E0252403E0262401E0272400BF6F
:1023E00000BF204670BD2DE9F04704460D46681E2B
:1023F00000EBD071C1F3470800260127207823287D
:102400004ED1605D0D284BD100BF0FE0E05DFFF7BE
:1024100023FF8146E1194878FFF71EFF69F31F107B
:1024200062498855B81CC7B2701CC6B2192EEDDBC4
:102430005E48407A5D49097A40EA01205C4908809B
:1024400008215A48FFF7E3FE5A49088008460088E9
:1024500057490988884220D1012057490870022035
:102460005649087051480078554908704F4800791E
:1024700000064E49497940EA01404C49897940EAD1
:1024800001204A49C97908434E4908600846006856
:10249000FFF73DFE4C49086002E000204649087005
:1024A000BDE8F087012906D0022920D003293BD0BE
:1024B000042972D154E0232202704722427048223C
:1024C0008270C270472202714F224271562282717D
:1024D0005322C27149220272542242724C228272E9
:1024E0005622C2724C2202730D22427355E02322FF
:1024F000027047224270492282704822C2704722ED
:1025000002714F224271562282715322C2714922B6
:10251000027250224272512282725622C2724E229E
:1025200002730D22427338E0232202704722427068
:102530004A2282704822C270472202714F224271A1
:10254000562282715322C271492202725122427272
:1025500047228272C272502202730D2242731CE023
:1025600023220270472242704B2282704822C2709E
:10257000472202714F224271562282715322C27148
:1025800049220272472242724B2282725622C27242
:102590004A2202730D22427300BF00BF7047000041
:1025A000A08601000000F0BF00002440EC030020E2
:1025B000A4020020A6020020940200209D02002018
:1025C0009C020020A0020020980200200B48007806
:1025D0007047002009490870704709480078704723
:1025E0000848006870470848007828B1002006496C
:1025F00008700348007870470020FCE79D02002027
:102600009C02002098020020940200200948804784
:1026100009480047FEE7FEE7FEE7FEE7FEE7FEE7C4
:10262000FEE7FEE7FEE7FEE704480549054A064BDC
:10263000704700004D2600083501000858040020AE
:10264000580A002058060020580600203448006828
:1026500040F00100324908600846406831490840AE
:102660002F494860084600682F4908402C490860F7
:102670000846006820F4802008600846406820F47E
:10268000FE0048604FF41F008860C80327490860B7
:10269000704710B5002100200022214B5B6803F039
:1026A0000C0121B1042906D0082928D107E0204BCC
:1026B000204C236027E01E4B1E4C236023E0184B68
:1026C0005B6803F47010164B5B6803F480320223DE
:1026D00003EB904022B9184B4343164C23600DE0A6
:1026E0000F4B5B6813F4003F04D0134B4343114C72
:1026F000236003E00E4B43430E4C236003E00C4B7E
:102700000C4C236000BF00BF054B5B68C3F3031391
:102710000A4CE15C074B1B68CB40064C236010BDA4
:10272000001002400000FFF8FFFFF6FE08ED00E099
:1027300000127A00A802002000093D005A46000855
:1027400010B5044600F00EF80068005D000704D5DF
:10275000DF2C02D0A4F1200010BD204610BD704730
:102760007047704710B500F011F8001D10BD00BF94
:10277000290C000010B500F00DF8006810BD10B570
:10278000044600F007F8046010BD000000487047E0
:102790001804002000487047F803002000487047E4
:1027A000F80300207546FFF7F9FFAE4605006946BD
:1027B000534620F00700854618B020B5FFF734FFD8
:1027C000BDE820404FF000064FF000074FF0000832
:1027D0004FF0000B21F00701AC46ACE8C009ACE8B3
:1027E000C009ACE8C009ACE8C0098D467047044692
:1027F000AFF300802046FDF70DFD00004FF0013CD7
:1028000050F8042B51F8043B9A4221D1A2EB0C035F
:10281000934313EACC1317D150F8042B51F8043B1F
:102820009A4215D1A2EB0C03934313EACC130BD1BC
:1028300050F8042B51F8043B9A4209D1A2EB0C0347
:10284000934313EACC13DBD04FF00000704700BF76
:10285000D01A01BAB1FA81F101F0180122FA01F09F
:10286000CB40C1F12001DBB2C0B2C01A2CFA01F397
:10287000D11A914311EAC311E6D1704701491820DA
:10288000ABBEFEE7260002007047490050EAC120B7
:1028900018BF04204A0D18BF40F0010040F2FF723B
:1028A000B2EB515F08BF40F00200012808BF0520CD
:1028B00070472DE9F0414F1E00EBC7010446D1E9F6
:1028C000000115461E4637F006020DD02A46334653
:1028D00001F024F87F1E04EBC703D3E9002300F0C6
:1028E000A3FD37F00602F1D1022F25D0042F13D01B
:1028F000062F18BFBDE8F0812A46334601F00EF8D6
:10290000D4E90A2300F090FD2A46334601F006F888
:10291000D4E9082300F088FD2A46334600F0FEFF84
:10292000D4E9062300F080FD2A46334600F0F6FF86
:10293000D4E9042300F078FD2A46334600F0EEFF88
:10294000D4E9022300F070FD2A46334600F0E6FF8A
:10295000D4E90023BDE8F04100F066BD024A002042
:10296000110701F034BE000001FDFFFF2DE9F04D1D
:1029700016460F460546020094B01C4621F0004161
:1029800023F0004014BF4FF0010C4FF0000C0CEB93
:10299000470CFE4B0CEB03084FEA630CE0452DD3CC
:1029A0005FEA060818BF4FF0010808EB4408984496
:1029B000F74B984522D3F74B50EA060C02D09F42C2
:1029C00005D14AB914B000201946BDE8F08D002A9F
:1029D00008BF4FF0000C01D04FF0010C0CEB470387
:1029E00013F5001F0AD8002E14BF4FF0010C4FF052
:1029F000000C0CEB440313F5001F08D914B0324649
:102A0000234628463946BDE8F04D00F00DBDDFF8FD
:102A100088B34FF0000A002FB8BF584523DADF4BC8
:102A20009842A8BF4FF0020A1DDADA4B83421ADC43
:102A3000DB4B03EB2053142B08DDC3F1340C26FAD7
:102A40000CF303FA0CFCB4450DD108E05EB9C3F1F8
:102A5000140C20FA0CF303FA0CFC844503D103F0A8
:102A60000103C3F1020A51EA020321D1002C1FDA4B
:102A7000002F18BFBAF1020F02D0BAF1010F0BD02C
:102A80000220FFF77CFE14B00022BDE8F04D134693
:102A90001046C04900F084BD0220FFF770FE14B05C
:102AA0002A463B46BDE8F04D0020BA4900F078BD0B
:102AB00033006DD1584525D107F1804010F58010C5
:102AC00001BF002A0020B34914B008BFBDE8F08D53
:102AD000B048884207DC002CA1BF1846214614B03C
:102AE000BDE8F08D07E0002CBFBF184684F0004120
:102AF00014B0BDE8F08DAB497944D1E9000114B0C0
:102B0000BDE8F08DDFF88CC2604526D1002C1FDABD
:102B100019B1594513D1DAB90AE0002A40F0DA8236
:102B20009D4A394614B0002062F31E01BDE8F08DC5
:102B30000020394614B060F31E01BDE8F08D07DABD
:102B400014B03B46BDE8F04D0020614600F028BDC2
:102B500014B010463946BDE8F08D594518DAB4F185
:102B6000804F0DD0A4F10053B3F1FF5310D13B1EA1
:102B70000EDB14B01046BDE8F04D194600F0E6BB80
:102B80003B4614B01046BDE8F04D194600F0C6BEF5
:102B900027F00043A2BBE1B1594538D1002F06DD33
:102BA000002CA1BF0020594614B0BDE8F08D002FC5
:102BB00001DD002C1FDB002F16DA002C14DBBAF12C
:102BC000010F4FF0000014BF7349774914B0BDE8FE
:102BD000F08DBAF1020F18BF002F0CD0BAF1010F1F
:102BE00009D1002F07DA0CE0002FB8BF002C0EDA55
:102BF000BAF1010F05D0002014B00146BDE8F08DF8
:102C000005E014B000204FF00041BDE8F08D4FF01A
:102C1000010C0CEBE7720D9252EA0A020BD0634AE8
:102C200090427DDD624B634A984216DD8A420EDB9C
:102C3000002C1CDB2CE00120FFF7A1FD14B00022CA
:102C4000BDE8F04D13461046114600F0A9BC5148AE
:102C5000884202DC002C0ADC1AE0914202DA002CE5
:102C600016DA04E04B4B99421EDD002C10DD0220E9
:102C7000FFF785FD40F2013200204FF0E04101F006
:102C8000A6FC454A14B061F31E021146BDE8F08D62
:102C90000220FFF774FDFFF761FE3E4A14B061F3B6
:102CA0001E021146BDE8F08D00222846394601F08B
:102CB0005BF8054688466FF0010201F088FC4FF092
:102CC00055323D4B00F05EFF2A46434600F026FE9B
:102CD00000223A4B00F056FF07468B462A464346F1
:102CE0001046194600F01AFE3A465B4600F016FE02
:102CF00009910C904FF0C042314B2846414600F0FC
:102D00000DFE07468B462F4A2D4B09990C9800F073
:102D100005FECDE901102C4A2C4B2846414600E027
:102D200019E000F0FBFDDDE9013201F01DF83A4643
:102D30005B460591089000F077FB002588463A46EF
:102D40005B46284601F010F8059B089A00F01AFF30
:102D5000024600F076B90020B1F5801F07DA35226F
:102D60002846194601F033FC05466FF0340000EBAD
:102D70002150A0F2FF300190C1F3130040F07F61B9
:102D800041F0405102911249884223E0FFFF1F00A9
:102D9000FFFF0F000000F03F0000F07F0000404305
:102DA00001FCFFFF041C00000000F0FF0000E041F8
:102DB0000000F043FFFFEF3F5555D53F0000E03FD7
:102DC0004715F73FFE822B6544DF5DF80BAE543E9E
:102DD0008E980300D8BF4FF0000B0EDDFE498142F4
:102DE000C8BF4FF0010B08DC01984FF0000B401CEE
:102DF00001900298A0F580100290F848029978445A
:102E000000EBCB000B911090D0E90023284600F096
:102E1000ABFF009010980791D0E9002328460B994A
:102E200000F002FB02460B460020ED4900F0B8FB23
:102E300005910B46024608900799009800F06EFD38
:102E40000690E848884600277844029900680E906A
:102E50004FF0005040EA610000EB8B4000F500218C
:102E600010980291D0E900230E9800F07DFF2A46C9
:102E70000B9B00F087FE3A46434600F04FFD0546A7
:102E80000B9138464146029B0E9A00F047FD079B86
:102E9000009A00F077FE2A460B9B00F065FF059B29
:102EA000089A00F03BFD0B911090069A434610469D
:102EB000194600F033FD05460246CB480B4600910B
:102EC00006217844FFF7F5FC009B2A460291089002
:102ED0001046194600F022FD029B089A00F01EFDE4
:102EE00005460591434638461946069A00F09CFA75
:102EF0000B9B109A00F012FD2A46059B00F094FAF5
:102F00003A464346059108901046194600F006FDE2
:102F10000022B64B00910C9000F086FA059B089AAF
:102F200000F082FA0D463A46B04B384600F01CFFDE
:102F3000009B0C9A00F018FF059B089A00F022FEF7
:102F400011913A460C902B461046414600F0E6FCA3
:102F5000079100904346069A11990C9800F0DEFC08
:102F6000804603912B463A460B99109800F0D6FC08
:102F70004246039B00F058FA059180460B460246F4
:102F80000799009800F050FA00200F460546079B6D
:102F9000009A00F0E9FE4246059B00F0F3FD8046F2
:102FA00009914FF06042924B2846394600F0B6FC3A
:102FB000009102908F4A8E4B4046099900F0AEFC7A
:102FC000804603918C4A8D4B2846394600F0A6FC7A
:102FD0004246039B00F028FA894A7A4402EBCB036D
:102FE000D3E9002300F020FA06900391019800F045
:102FF0002FFC0746DDE902030591069A009900F0CF
:1030000013FA804A7A4402EBCB0BDBE9002300F091
:103010000BFA3A46059B00F007FA002588463A4627
:103020002846059B00F0A0FEDBE9002300F09CFE93
:10303000009B029A00F098FE039B069A00F0A2FD06
:103040000246002006900D98654FAAF1010318432F
:1030500001D16D4F069000200B460090304621466E
:1030600000F05CFC82468B46234630461946009AA7
:1030700000F07AFE2A46434600F050FC52465B467A
:1030800000F0D2F906468A462A4643462146009871
:1030900000F044FC04460D463246534600F0C4F9A5
:1030A0005A4A8B46914226DBABEB020353EA0002FD
:1030B00010D122462B4600F057FE80460591544A17
:1030C000544B3046514600F0AFF94246059B00F0A4
:1030D00023FD30D20220FFF752FB40F201320020E4
:1030E0004FF0E04101F073FA0A46394614B062F33A
:1030F0001E01BDE8F08D484B2BF000429A421AD3D6
:10310000464A0BEB020353EA000208D122462B4643
:1031100000F02AFE3246534600F0FEFC0BD8022097
:10312000FFF72DFBFFF71AFC0A46394614B062F38D
:103130001E01BDE8F08D2BF000403949394A01EB02
:1031400020514FF00008824223DA481C4FF48011CE
:1031500021FA00F05844C0F30A51334AA1F2FF317A
:103160007A44324B1268CB4020EA0303C0F31300C9
:1031700040F4801CC1F114002CFA00F8BBF1000FE0
:10318000B8BFC8F100082046294600F0EDFD04460E
:103190000D4622462B463046514600F045F94FF089
:1031A000000B5A46224B5846059100F0B7FB0090A1
:1031B0000791204A204B5846059900F0AFFB049137
:1031C000029022462B465846059900F0CDFD324626
:1031D000534600F0D7FC31E07AB60B0076180000B9
:1031E0000000F03FB4180000E217000000000840A3
:1031F00009C7EE3FFD033ADCF5015B14E02F3EBE4C
:10320000BA160000801600000000F0BF00009040D9
:10321000FE822B654715973C00CC904000346F3FF1
:1032200001FCFFFF0000E03F9C150000FFFF0F00C6
:10323000432EE63F396CA80C615C20BE3F4A404BF0
:1032400000F06CFB049B029A00F0EEF806468A46FA
:10325000079B009A00F0E8F804460D46079B009A89
:1032600000F082FD3246534600F08CFC06462246B2
:103270002B4609911046194600F050FB8346024642
:1032800030488A460B4605217844FFF712FB5A4620
:10329000534600F043FB22462B4600F073FC824667
:1032A0008B46324620462946099B00F037FB3246C2
:1032B000099B00F0B9F80591089000224FF0804377
:1032C0005046594600F050FD0646009152465B4676
:1032D0002046294600F022FB3246009B00F060F9B0
:1032E000059B089A00F040FD22462B4600F03CFD6D
:1032F0000022154B00F046FC0D46044601EB085138
:103300000815002810DC42462046294601F05FF9E6
:10331000FFF7BBFA042808BFFFF720FB4246204610
:10332000294601F054F9044606980B4614B022468B
:103330003946BDE8F04D00F0F1BA0000EF39FAFE71
:10334000422EE63F4C1400000000F03F2DE9F04112
:1033500006460F4600F022FC04000D4618BF01206F
:10336000284320F00040C0F17F6000F1E040C00F32
:103370000ED0301C18BF0120384320F00040C0F1AF
:103380007F6000F1E040C00F04BF0120FFF7F7F9B4
:1033900020462946BDE8F08110B500290AD00878FA
:1033A000002807D005487844FFF728FA002801D004
:1033B000002010BD0248784410BD000082130000B8
:1033C0007A13000021F00042A2F16052B2F5801F92
:1033D00001F0004328BFD2F17F6C0BD95FEA001CDB
:1033E00043EAC20242EB507018BF704728BF20F07A
:1033F00001007047B2F5801FBCBF184670474FEA06
:10340000410C1CF5001F02D2084601F002B870B54D
:1034100000F02EFB00000089FFF7F6BF4FF00040E0
:10342000A0F580007047000010B591EA030F48BF77
:1034300083F0004300F1A084841A71EB030C05D2E1
:10344000121943EB0C03001B61EB0C01DFF824E1C4
:103450004FEA1154A4EB135C1EEA430F18BF9EEA17
:10346000445F73D023EA0E03DCF1200E21EA0451FD
:1034700043F4801332D322FA0CFE10EB0E0023FA31
:103480000CFE41EB0E01CCF1200E03FA0EFE10EB08
:103490000E0051F10001B1F5801FCCF1200E32D2A7
:1034A00001EB045112FA0EF2BDE8104058BF70470C
:1034B000401C38BF5FEA420218BF7047002814BFA3
:1034C00020F0010041F100014FEA410313F5001F14
:1034D00038BF7047A1F1C04100F018BB012A43EB8F
:1034E0000302ACF1200CDCF11F0E32BF4FF0000ED6
:1034F00023FA0CF310EB030041EB0451B4EB115F22
:10350000D0D0A1EB045101F5801149085FEA3000E9
:1035100001EB04510ED350F1000038BF12FA0EFE39
:1035200008D1BDE81040C9E7401C38BF5FEA42023D
:10353000CAD1C3E7BDE810404FEA410313F5001FAD
:1035400038BF7047A1F1C04100F0E0BA9EEA445F85
:1035500008D011EA5E0FBDE8104004BF01F0004141
:1035600000207047BDE8104070B500F081FA00BF40
:1035700064FBBE3E0000E0FF02494FF0000000F097
:10358000F4BF00BF0000F87F491058BFC1F14041AF
:103590005B1058BFC3F140438B42EFF3008070478C
:1035A0002DE9C04130B4DFF8A0C23CEA111418BFC5
:1035B0003CEA131400F0EC8081EA03051CEA1114C4
:1035C00044EAD57418BF1CEA131500F0C780A4EBB9
:1035D00005044FF0004545EAC12145EAC32341EA0D
:1035E000505143EA525304F17F74994204F5003478
:1035F0004FEAC0204FEAC22208BF904200F09C80F0
:103600004FEA13650FF24016765D4FEA134506FB4D
:1036100005F7C7F1807706FB07F74FEAD737A7FB17
:1036200003687642C8F58038A7FB06CE38BFA8F1FC
:10363000010807FB08E64FF0000EA6FB028CE6FB34
:1036400003CEDCF1000CCEF1004E38BFAEF1010E1E
:10365000A6FB0C584FF000074FF00005E6FB0E8765
:10366000A1FB08C6A0FB07CE16EB0E0645F1000530
:10367000E1FB076515F1E04E7EBFA4F580345FEAFB
:1036800046066D4116F1800745F100054FEA172700
:103690004FEA066647EA0567A6F1DE46B6F1805FA7
:1036A0004FEA15251FD9384624F0010C05EBC471EB
:1036B000BCF1FE6F01EB0C1102D8F0BCBDE800813B
:1036C00024425CBF01F5801E9EEAC47F02D4F0BC98
:1036D000BDE80081244238D4F0BCA1F1C041BDE86E
:1036E000004100F013BA4FEAD22242EA43524FEAB5
:1036F000D323A7FB02864FEAD02040EA415007FBC4
:1037000003661EEA0E0F4FEAD12105FB026658BF81
:10371000A6EB0056B6EB00564FEA520E4EEAC37EB9
:1037200018EB0E0E56EB530EBDD518EB02085E419A
:103730007F1C55F10005B6E74FF480154FF00007E8
:103740004FF000064FF00008ADE7F0BC4FF000006E
:1037500001F1C04101F00041BDE8008111EA0C1FF8
:103760000CEA131500D00CE013EA0C1F00F02580C2
:103770004FF00000F0BC81EA030101F00041BDE818
:103780000081F0BCBDE8004181EA030100F0BEB950
:10379000F0BCBDE8004170B500F06AF9097EFC3E5E
:1037A00000F007B881EA03014FF0000001F000418A
:1037B000704781EA030100F0A9B9F0BCBDE80041FF
:1037C0004FF0000021497047FFFDFBF9F7F5F4F2D7
:1037D000F0EEEDEBE9E8E6E4E3E1E0DEDDDBDAD8AC
:1037E000D7D5D4D3D1D0CFCDCCCBCAC8C7C6C5C40A
:1037F000C2C1C0BFBEBDBCBBBAB9B8B7B6B5B4B321
:10380000B2B1B0AFAEADACABAAA9A8A8A7A6A5A40B
:10381000A3A3A2A1A09F9F9E9D9C9C9B9A999998CF
:103820009797969595949393929191908F8F8E8E72
:103830008D8C8C8B8B8A89898888878786858584FF
:1038400084838382828181800000FF070000F87FEB
:1038500010F0004248BF4042B0FA80F310FA03F182
:103860000AD0C3F11D0303F580634FEA415002EB18
:10387000035202EBD12170474FF000007047B0FABD
:1038800080F310FA03F10AD0C3F11D0303F580633E
:103890004FEA41504FEA035202EBD12170474FF0FB
:1038A0000000704751EA030C17D41CF5801F58BF65
:1038B000BCF5801F00F10680994218BF704708BF11
:1038C0009042704707D711F5801F58BF13F5801F2E
:1038D00019D499427047894270471CF5801F08D55A
:1038E000BCF5801FF7D58B4218BF704708BF8242D6
:1038F00070474FF4001C1CEB410F38BF1CEB430F0B
:1039000001D28B42704770B500F0B2F892244900A2
:103910004FF000514FF08053FFF736BEDFF848C13B
:1039200070B51CEA111E1EBF1CEA13159EEA0C0F8F
:1039300095EA0C0F00F06F8081EA030423EA4C1330
:103940004EEAD47E21EA4C1141F4801143F48013F5
:10395000AE44A1FB024CA0FB0365AEF17F7E36199D
:1039600055EB0C05A1FB034C4CF10003A0FB021C22
:1039700016EB0C06654153F10003094218BF46F0EF
:10398000010613F4007F0BD14FEA03314FEA0530F3
:10399000340341EA155140EA16506FF003020AE081
:1039A0004FEAC3214FEAC520F40241EA555140EAEB
:1039B00056506FF0020202EB2E4201EB025585EAEF
:1039C000CE710AD05FEA440C18BF24F0004450F1D5
:1039D000000041F1000120EAD47040F2FE7C624513
:1039E00000D270BDA84214BF4FF080444FF0404455
:1039F000002E08BF0024BEF1806FA8BFA1F1C04116
:103A0000BDE8704080F282804FF0000001F1C041BB
:103A100001F0004170479EEA0C0F0CEA131518BF25
:103A200095EA0C0F06D04FF0000081EA030E0EF06D
:103A3000004170BD00F01CF88900013E00F007B89D
:103A400000F009B84FEA430C5FEA5C5C08D081EAF9
:103A5000030100F05BB84FEA410C5FEA5C5CF6D111
:103A60004FF00000014970470000FF070000F87F99
:103A70000EF1020E2EF0030E5EF8046B364205D4F2
:103A8000012A43EB030515F5001F12D8012841EB6D
:103A9000010C1CF5001F0CD80ED14FEAD17C15F596
:103AA000001F0CEB4C0C0CF1020C08BF4CEBD37C50
:103AB00004E04FF0080C01E04FEAD37C0CEB4C051E
:103AC00026FA05F606F00706B6F1040C06D20EEB50
:103AD000860CBDE870404CF0010C6047DFE80CF04C
:103AE000090B02024FF000414FF00000A1F5002148
:103AF00070BD19461046012851EB010418BFD4F5DA
:103B0000001484BF002001F0004170BD0808A0F53A
:103B100000114FEA3101704753EA010C17D41CF52C
:103B2000801F58BFBCF5801F00F106808B4218BF74
:103B3000704708BF8242704707D713F5801F58BFF0
:103B400011F5801F19D48B4270479B4270471CF5BA
:103B5000801F08D5BCF5801FF7D5994218BF704764
:103B600008BF904270474FF4001C1CEB430F38BF56
:103B70001CEB410F01D2994270470FB40CBC03BC3F
:103B8000FFF7C1BE91EA030F10B581F000413FF588
:103B900053AC83F0004300F0EFB800002DE9F04192
:103BA00001F5801CBCF5001FC0F2C3804FEA115C18
:103BB00021EA0C510CF1FD0C41F480115FEA5C0C20
:103BC0000CF5C07C01D3400049413DA4890241EA83
:103BD000905187028E0E0A0CA45D04FB04F602FBD2
:103BE00006F6C6F14046A4FB0662F60D46EA4226FA
:103BF00006FB06F4A4FB01235242C3F1404338BF45
:103C00005B1EA6FB02420024E6FB0324D20B42EA21
:103C10004446A6FB0623A1FB02E2A3FB07E4A4188B
:103C20004FF0000252F10002E3FB01426442C2F194
:103C3000404E38BFAEF1010EA6FB04234FF0000248
:103C4000E6FB0E32A2FB03464FF00004B61954F116
:103C50000004E2FB0264A1FB06E6A4FB07E816EB06
:103C600008064FF0000858F10008E4FB01687642AE
:103C7000C8F1405838BFA8F10108A2FB06E4A3FB35
:103C800008E52D194FF0000454F10004E2FB08543C
:103C9000A1FB05E6A7FB04E818EB06084FF00006B9
:103CA00056F10006E1FB048618F1200556F10006E6
:103CB000A809A8F11B08B10908F03F08B8F10A0FDC
:103CC00040EA86601CD901EB0C51BDE8F08100BFD1
:103CD000FCF5EEE8E2DDD8D3CFCBC7C3C0BDB9B6A3
:103CE000B4B1AEACA9A7A5A3A19F9D9B9A989695A8
:103CF0009392908F8D8C8B8988878685848382812F
:103D0000A0FB006800FB01F208EB4208B8EB872833
:103D100007D5341858EB0104D5D5401C51F10001EA
:103D2000D1E7341A78EB0104CDD4401E71F10001C3
:103D3000C9E75FEA4C0C5FEA9C5C0DD105D34FF0FC
:103D4000000001F00041BDE8F081BDE8F04170B530
:103D5000FFF78EFE6DDBFFBEBDE8F0414FF00000C7
:103D6000004970470000F87F10B591EA030F48BF83
:103D700083F000433FF560AB841A71EB030C07D26C
:103D800012198CF0004C43EB0C03001B61EB0C018F
:103D9000DFF8A4E14FEA1154A4EB135C1EEA430FD1
:103DA00018BF9EEA445F00F0B08023EA6E035242DF
:103DB00021EA0451C3EB6E0338BF5B1EDCF1200E19
:103DC00025D322FA0CFE10EB0E0043FA0CFE41EB59
:103DD0000E01CCF1200E03FA0EFE10EB0E0051F195
:103DE0000001CCF1200E29D412FA0EF201EB04519D
:103DF000BDE8104058BF7047401C1CBFB2F1004FD7
:103E0000704700280CBF491C20F00100704712EBDE
:103E1000020E43EB030218BF4FF0010E4EEA4202BE
:103E2000ACF1200CDCF11E0E54D943FA0CFE10EB61
:103E30000E0051F1FF31CCF11E0ED5D50EF1010E61
:103E400012FA0EFE404141EB010101EB445C5FEAD6
:103E50005C5C10D910EBDE7001EB045138BFBEF191
:103E6000004FBDE8104018BF704700280CBF491C28
:103E700020F00100704730D24FEAD42C11F5001128
:103E800024F400641BD0B1FA81F20B3AA41AA41EE8
:103E9000D2F12003914030FA03F31943904001EB33
:103EA000CC71002C01EB0451BDE81040A8BF704755
:103EB00001F1C0414FF0000001F000417047B0FA3D
:103EC00080F310FA03F100D110BDE41A173C480545
:103ED000C90AE4E701EB045110BD491001EB04519C
:103EE000BDE810404FEA300002E04FF0000170479B
:103EF0004A0008BF0042F8D0B2F5001F28BF704743
:103F000001F000414FF0000070479EEA445F07D087
:103F100011EA5E0FBDE8104004BF00210020704789
:103F2000BDE8104070B5FFF7A3FD00BF40DFF63ECF
:103F300083F00041104670470000E0FF43004FEA65
:103F4000D30C4FEA3C0C43401FBF40070CF16051BB
:103F500013F0FE4F70471CF0006F03D100200CF0EF
:103F6000004170470CF0004343EA507010B540EA3E
:103F7000CC0000F008FA00BF000000924FEA0001F8
:103F8000FFF7C4BD4FF000414FF00000A1F5002144
:103F90007047000090EA010F48BF81F0004100F136
:103FA0007682421A3CBF801A89184FEAD0524FF0ED
:103FB0007F4C1CEA410FA2EBD15318BF9CEA026F61
:103FC00000F03B804FF0004C4CEA00204CEA01210D
:103FD00021FA03FC10EB0C0C1ED202F1FF325FEA57
:103FE0001C2040EBC25038BF70471CF07F0F4FEAD7
:103FF000400C18BFBCF17F4F38BF7047C3F120039E
:10400000994008BF20F00100BCF17F4F38BF7047D6
:10401000A0F1C04000F0FDB94FEA3C00000A40EBBF
:10402000C25028BF1CF0FF0F4FEA400CE6D018BF6B
:10403000BCF17F4F38BF7047EAE79CEA026F05D0BA
:1040400010EA5C0F08BF00F00040704710B500F0A8
:104050009AF900BF64FBBE3E401058BFC0F140401B
:10406000491058BFC1F140418142EFF300807047D1
:104070004FF47F0C1CEAD0121EBF1CEAD11392EA47
:104080000C0F93EA0C0F00F0858090EA010F48BFF7
:1040900042F4807240F4000C41F400002CF07F41A7
:1040A00020F07F4000B58142A2EB03020FF2081C12
:1040B000ACEB504EC0F100009EF800E04FEA4E0E0F
:1040C00000FB0EFC38BF49004FEA2C1C02F5FA0237
:1040D0000CFB0EF34FEACE1E4FEA112C4FEAC12122
:1040E0000EEB635E42EB22420EFB0CFC4FEA1C53CC
:1040F00000FB03114FEA112C4FEA01310EFB0CFCBF
:104100004FEADC4C00FB0C11C14228BF09184CEBF4
:1041100003335DF804EB10EB410143EBC250B2F501
:104120007C0F38BF704729D512F0F00F1CBF00F18B
:10413000C04000F0004070470081828384858687FC
:1041400088898B8C8D8E8F919293959697999A9C56
:104150009D9FA0A2A3A5A7A8AAACAEB0B2B3B5B7C5
:10416000B9BCBEC0C2C5C7C9CCCED1D4D7D9DCDF9B
:10417000E2E6E9ECF0F3F7FAFE0000004FEA400C4B
:104180000CF1807CBCF17E4F28BF7047B0F1C0407D
:1041900000F03FB990EA010F0CEAD11348BF42F496
:1041A0008072624538BF634507D213F47F0F16D083
:1041B00080EA010000F00040704710B500F0E3F81D
:1041C000097EFC3E00F005B880EA010000F00040E6
:1041D000704780EA010000F0004000F01AB912F4C4
:1041E0007F0F04BF0248704780EA010000F011B958
:1041F0000000C07FB0FA80F310FA03F2C3F19D0310
:104200000AD0D90501EB1220530638BF704700F1E0
:10421000010008BF20F001007047000050EA010CC7
:1042200000F113801CF5000F58BFBCF5000F01D43E
:104230008842704707D710F5000F58BF11F5000FDF
:1042400015D488427047894270471CF5000F04D589
:10425000BCF5000FF7D5814270474FF0807C1CEB16
:10426000400F38BF1CEB410F01D28142704710B59F
:1042700000F089F8922449004FF000504FF080512F
:10428000FFF7EABE4FF47F0C1CEAD0121EBF1CEAF7
:10429000D11392EA0C0F93EA0C0F00F0478090EADA
:1042A000010F48BF42F480724FF0004C4CEA0020EE
:1042B0004CEA012102EB0302A0FB0113A2F500026C
:1042C000002918BF43F001035B0028BF4FEA330306
:1042D00042EB22425FEA132C4CEBC2502EBFBCEBE8
:1042E000436FB2F57C0F70474FEA036CBCF1004F8F
:1042F00008BF20F00100B2F57C0F38BF70470BD526
:1043000082F0FF0212F5803FC8BF704700F1C04045
:10431000D8BF00F00040704700F5000C5FEA4C0C7D
:1043200048BF7047B0F1C04000F073B890EA010F89
:104330000CEAD11348BF42F48072624538BF63452E
:1043400004D280EA010000F00040704710B500F090
:104350001AF800BF8900013E00F007B800F009B864
:104360005FEA410C5FEA1C6C08D080EA010000F0B3
:1043700050B85FEA400C5FEA1C6CF6D14FF0004089
:10438000A0F5800070470EF1020E2EF0030E5EF8CD
:10439000044B244204D44FEA4102B2F17F4F11D8BA
:1043A0004FEA4003B3F17F4F0CD80ED14FEAD07CD7
:1043B000B2F17F4F0CEB4C0C0CF1020C08BF4CEB34
:1043C000D17C04E04FF0080C01E04FEAD17C0CEB0B
:1043D0004C0324FA03F404F00704B4F1040C06D2ED
:1043E0000EEB840CBDE810404CF0010C6047DFE898
:1043F0000CF0070802024FF00040A0F5800010BD4D
:104400000846420018BFD2F1807288BF00F0004019
:1044100010BDFF2141EAD050C005704751EA000CA1
:1044200000F113801CF5000F58BFBCF5000F01D43C
:104430008142704707D711F5000F58BF10F5000FE4
:1044400015D481427047894270471CF5000F04D58E
:10445000BCF5000FF7D5884270474FF0807C1CEB0D
:10446000410F38BF1CEB400F01D28842704780EAF1
:10447000010081EA000180EA0100FFF7F8BE0000B8
:1044800090EA010F48BF81F000413FF58AAD421A22
:1044900004D882F00042A0EB020011444FEAD0524F
:1044A0004FF07F4C1CEA410FA2EBD15318BF9CEA9E
:1044B000026F4AD04FF0004C4CEA00204CEA012138
:1044C00021FA03FCB0EB0C0C0FD412F0FE0F36D027
:1044D0005FEA4C001DD5001240EBC25038BF704758
:1044E0001CF03F0F18BF70470BE0A2F101025FEA1A
:1044F0001C2040EBC25038BF70471CF07F0F18BF24
:104500007047C3F12003994014BF401E20F0010002
:10451000704780084FEA122308BF7047B0FA80FC4A
:10452000A2EB0C02CCF1280C60FA0CF093EA122FEB
:1045300004BF00EBC25070474FEAC3707047130AC4
:104540005FEADC1008BF7047F6E79CEA026F04D010
:1045500010EA5C0F08BF0020704710B5FFF713FF8B
:1045600040DFF63E81F0004070470CF00F03092B4E
:1045700008BF082000F059800A2B0BD0082B18BF69
:10458000704708BF1CF0400F0AD04FF000004FF0FA
:10459000000170471CF0400F18BF4FF000407047FB
:1045A0001CF0100F08D020F0704300F07F4242EA68
:1045B000D3014FEA4370704700F0604021F07F4222
:1045C00042EA000201F07F4040EA727070474FF00B
:1045D000FF0C4CF4E06C1CEA11531CBF9CEA030C6A
:1045E0009445C2BFDA4201EB02517047002B0DD057
:1045F000BCF1000F0FD0002A01F00041A4BF41F030
:10460000E04141F07F614FF00000704701F0004150
:104610004FF00000704750EA01334FF09B0C18BF79
:104620004CF0806C7EF4A8AF70471CF4801F11D052
:104630001CF4E02F03D06FEACC31490070474FF0F3
:104640004050EFF3008222F0704242EA000282F30F
:10465000008870474FF00000704700000000000025
:10466000000001020304060708090000000001021F
:104670000304000000000000000000000000F03F04
:10468000000000000000F83F0000000000000000F3
:104690000000004003B8E23F0000000000000000FE
:1046A00006D0CF43EBFD4C3E033333333333E33F8C
:1046B000FFAB6FDBB66DDB3F4D268F515555D53FB8
:1046C00001411DA96074D13F65DBC9934A86CD3F86
:1046D000EF4E454A287ECA3F3E5555555555C53F74
:1046E00093BDBE166CC166BF2CDE25AF6A56113F66
:1046F000F16BD2C541BDBBBED0A4BE726937663E68
:104700000000000000000000384800080000002001
:10471000AC020000700100086C490008AC020020E7
:10472000AC070000CC0100081001000043000000AD
:10473000F8FFFFFF004040404040404040404141C2
:104740004141414040404040404040404040404066
:104750004040404040050202020202020202020200
:1047600002020202022020202020202020202002FD
:10477000020202020202909090909090101010108D
:104780001010101010101010101010101010101029
:1047900002020202020288888888888808080808BD
:1047A0000808080808080808080808080808080889
:1047B00002020202400000000000000000000000B1
:1047C00000000000000000000000000000000000E9
:1047D00000000000000000000000000000000000D9
:1047E00000000000000000000000000000000000C9
:1047F00000000000000000000000000000000000B9
:1048000000000000000000000000000000000000A8
:104810000000000000000000000000000000000098
:104820000000000000000000000000000000000088
:1048300000000000000000001100FF00C0C101C323
:104840000302C2C60607C705C5C404CC0C0DCD0FB4
:10485000CFCE0E0ACACB0BC90908C8D81819D91B64
:10486000DBDA1A1EDEDF1FDD1D1CDC14D4D515D7E4
:104870001716D6D21213D311D1D010F03031F13334
:10488000F3F23236F6F737F53534F43CFCFD3DFFF4
:104890003F3EFEFA3A3BFB39F9F83828E8E929EBC4
:1048A0002B2AEAEE2E2FEF2DEDEC2CE42425E52724
:1048B000E7E62622E2E323E12120E0A06061A16394
:1048C000A3A26266A6A767A56564A46CACAD6DAF34
:1048D0006F6EAEAA6A6BAB69A9A86878B8B979BBE4
:1048E0007B7ABABE7E7FBF7DBDBC7CB47475B57764
:1048F000B7B67672B2B373B17170B05090915193F4
:1049000053529296565797559594549C5C5D9D5F73
:104910009F9E5E5A9A9B5B99595898884849894B43
:104920008B8A4A4E8E8F4F8D4D4C8C4484854587A3
:104930004746868242438341818012402808C181D4
:104940004001C0804104690C2908E918A91C091A12
:1049500030091638093660092E70092F60913B0125
:0C4960000106D1C90E017D040048E801E9
:0400000508000135B9
:00000001FF
